:1000000000100020B90D0000EF0D0000F10D000000
:10001000F30D0000F50D0000F70D0000ED0D0000E0
:10002000ED0D0000ED0D0000ED0D0000F90D0000DC
:10003000FB0D0000ED0D0000FD0D0000FF0D0000A8
:10004000010E0000030E0000050E0000070E000068
:10005000090E00000B0E00000D0E00000F0E000038
:10006000110E0000130E0000150E0000170E000008
:10007000190E00001B0E00001D0E00001F0E0000D8
:10008000210E0000230E0000250E0000270E0000A8
:10009000290E00002B0E00002D0E000000000000B5
:1000A0000000000000000000000000000000000050
:1000B0000000000000000000000000000000000040
:1000C0000000000000000000000000000000000030
:1000D0000000000000000000000000000000000020
:1000E0000000000000000000000000000000000010
:1000F0000000000000000000000000000000000000
:1001000010B5054C237833B9044B13B10448AFF351
:1001100000800123237010BD70000020000000004B
:100120009810000008B5064B1BB106480649AFF30E
:1001300000800648036813B1054B03B1984708BD1A
:1001400000000000981000007400002070000020E3
:1001500000000000154B002B08BF134B9D46A3F574
:10016000803A00218B460F461348144A121A00F0B9
:100170005FFF0F4B002B00D098470E4B002B00D099
:1001800098470020002104000D000D48002802D0EF
:100190000C48AFF3008000F025FF2000290000F09C
:1001A0006BFC00F00BFF00BF0000080000100020F7
:1001B00000000000000000007000002090000020FF
:1001C000000000000000000080B487B000AFF860BD
:1001D000B9607A60FB6803F10473DA00BB6813440A
:1001E0009B007B617B697A681A601C37BD465DF8AD
:1001F000047B704780B483B000AF1A4B5B6903F493
:10020000E063B3F5007F14D0B3F5007F05D8002B71
:1002100015D0B3F5807F0FD01AE0B3F5C06F14D0BE
:10022000B3F5E06F0ED0B3F5407F11D10E4B7B607C
:1002300011E00E4B7B600EE00D4B7B600BE00D4B35
:100240007B6008E00C4B7B6005E00C4B7B6002E0C0
:1002500000237B6000BF7B6818460C37BD465DF805
:10026000047B704700800C4040420F00C0CF6A0002
:10027000C0D8A700809FD500406F4001003FAB0170
:1002800080B582B000AF0D4800F06CF90346FB70FA
:10029000FB78072B05D0082B07D100F0F1FD786023
:1002A00006E0FFF7A7FF786002E000237B6000BF55
:1002B0007B6818460837BD4680BD00BF04001800A3
:1002C00080B584B000AF78607B68002B02D07B687B
:1002D000012B00D100BF1D4B9A6A7B685B0022FA9C
:1002E00003F303F00303032B28D801A252F823F0F1
:1002F0001D030000010300000903000011030000BA
:1003000000F03CFEF8601CE000F04CFEF86018E0E5
:1003100000F09CFD03465B08FB6012E00B4B9A6A01
:100320007B6804339B0022FA03F3002B03D000F018
:100330002FFEF86005E00023FB6002E00023FB6075
:1003400000BFFB6818461037BD4680BD00800C40DA
:1003500080B483B000AF7860094B5B6D03F001039C
:10036000002B00D006E000BF054B1A6D7B681340E0
:10037000002BF9D10C37BD465DF8047B704700BFF8
:1003800000800C4080B586B000AF78600B46FB70F3
:1003900000233B617B681B0A03F00F03013B052B25
:1003A00036D801A252F823F0C1030000C7030000B1
:1003B000CD030000D3030000DD030000E7030000CD
:1003C000154B7B6112E0154B7B610FE0144B7B6199
:1003D0000CE0144B7B6101233B6107E0124B7B6116
:1003E00010233B6102E0114B7B6100BF7B681B0B5C
:1003F00003F01F03FB603B69002B02D03869FFF755
:10040000A7FFFB787869F9681A46FFF7DDFE00E080
:1004100000BF1837BD4680BD08800C4044800C40AA
:1004200040800C4058800C4060800C4078800C402C
:1004300080B584B000AF78607B6803F47813B3F5BF
:10044000202F50D0B3F5202F12D8B3F5802F33D002
:10045000B3F5802F05D8002B1ED0B3F5003F1FD079
:1004600076E0B3F5C02F2BD0B3F5002F2DD06FE081
:10047000B3F5A01F57D0B3F5A01F06D8B3F5801F62
:100480003FD0B3F5901F49D062E0B3F5C01F57D0FD
:10049000B3F5D01F58D05BE000F0F2FCF8605AE0F2
:1004A00000F0EEFCF8602E4B9B6803F00F03FA6837
:1004B00022FA03F3FB604EE000F0C8FCF8604AE06B
:1004C0000020FFF7FDFEF86045E00020FFF7F8FE92
:1004D000F860234B9B6E03F0F0031B09FA6822FAC5
:1004E00003F3FB6037E00020FFF7EAFEF8601C4BE7
:1004F0009B6E03F470631B0AFA6822FA03F3FB6035
:1005000029E00020FFF7DCFEF860154B9B6E03F03E
:100510000303FA6822FA03F3FB601CE00120FFF7F3
:10052000CFFEF86017E00120FFF7CAFEF8600C4B21
:100530001B6F03F00303FA6822FA03F3FB600AE07F
:10054000FFF79EFEF86006E0FFF754FEF86002E059
:100550000023FB6000BFFB6818461037BD4680BD16
:1005600000800C4080B487B000AF78600123FB7539
:100570004FF470533B617B6803F00F03FB60FB6833
:10058000013B032B74D801A252F823F09D05000013
:10059000D30500000F0600004B060000394BDA6A55
:1005A0003B691340B3F5805F09D0B3F5005F03D01A
:1005B000B3F5006F06D008E00223FB7508E00323C3
:1005C000FB7505E00423FB7502E00523FB7500BF06
:1005D00051E02C4B9B6A03F00303022B06D0032B44
:1005E00007D0012B08D10323FB750FE00223FB7515
:1005F0000CE00623FB7509E0224B9B6A03F4803371
:10060000002B02D00923FB7500E000BF33E01D4B37
:100610009B6A03F00C03082B06D00C2B07D0042B8D
:1006200008D10323FB750FE00223FB750CE00623C2
:10063000FB7509E0134B9B6A03F48013002B02D077
:100640000923FB7500E000BF15E00723FB750D4B88
:100650001B6803F08053002B03D0B3F1805F03D0FD
:1006600009E00723FB7502E00823FB7500BF02E0E9
:100670000023FB7500BFFB7D18461C37BD465DF8A7
:10068000047B704700800C4090B484B000AFB96028
:100690007B600346FB731346BB73FB7B052B03D8C0
:1006A000BB680F2B00D800BFBB7B002B1FD07B6823
:1006B000002B0ED04448FA7BBB68012101FA03F3FA
:1006C00019461346DB0013449B00034410331960A2
:1006D0000DE03D48FA7BBB68012101FA03F319469E
:1006E0001346DB0013449B00034410335960BB687E
:1006F000072B1DD83448FA7B334CF97B0B46DB00C3
:100700000B449B0023445968BB689B000F2404FAE8
:1007100003F3DB431940BC7BBB689B0004FA03F383
:1007200019431346DB0013449B000344596024E043
:100730002548FA7B244CF97B0B46DB000B449B00DD
:10074000234408331968BB6803F18043083B9B00CE
:100750000F2404FA03F3DB431940BC7BBB6803F1AD
:100760008043083B9B0004FA03F319431346DB0064
:1007700013449B00034408331960BB7B002B1FD13B
:100780007B68002B0ED01048FA7BBB68012101FA70
:1007900003F319461346DB0013449B000344103354
:1007A00019600DE00848FA7BBB68012101FA03F3E8
:1007B00019461346DB0013449B0003441033596071
:1007C0001037BD4690BC70470060004080B586B0D1
:1007D00000AFF860B9607A60BB68002B03D11448A1
:1007E000FFF726FEB860BB685B007B617A687B69B7
:1007F0001344013B7B617A697B68B2FBF3F37B6155
:100800007B69043B7B617B699B017B617B69C033B6
:100810007B617B6923F0FF037B617A69054B1340A1
:100820007B61FB687A695A611837BD4680BD00BF9D
:1008300010810200C0FF1F0080B485B000AF786057
:100840000B46FB707A680D4B9A4203D07A680C4BCA
:100850009A4200D100BFFB78DB43FB60FB6803F0EA
:100860000503FB60FB685A007B68DA60FA787B68F6
:10087000DA601437BD465DF8047B704700C0004065
:1008800000C4004080B582B000AF786039607A68FB
:10089000294B9A4203D07A68284B9A4200D100BF74
:1008A000786800F08BF87B681A683B681B8A43F015
:1008B00001039BB219463B689B7B002B02D04FF48F
:1008C000806300E000230B431A437B681A607B6857
:1008D00019683B689B7C002B01D0102200E00022AD
:1008E0003B681B7D002B02D04FF0005300E000233B
:1008F000134341EA03027B681A603B681B7B43F4A5
:1009000080527B685A603B685A683B689B6878688D
:1009100011461A46FFF75AFF3B685B7B002B02D05B
:100920007B681022DA603B681B781A467B68DA60C5
:100930000837BD4680BD00BF00C0004000C4004075
:1009400080B584B000AF786039603B681B78FB737A
:100950003B6800221A703B6878681946FFF792FFDF
:100960003B681B8B1A463B681B7F1A433B689B7E88
:10097000002B01D0102300E000231A433B68DB7EEC
:10098000002B01D0082300E000231A433B685B7F63
:10099000002B01D0022300E00023134343F00102A7
:1009A0007B68DA65FB7B002B04D0FB7B78681946FB
:1009B000FFF742FF1037BD4680BD00BF80B483B053
:1009C00000AF78607A681C4B9A4203D07A681B4B60
:1009D0009A4200D100BF7B6840F6AA62DA607B6869
:1009E00000221A607B6841F205025A607B6800228F
:1009F0009A607B6800225A617B680022DA647B6817
:100A000041F6F9729A647B6800225A657A680A4B4B
:100A10009A4202D17B6800221A657B6800229A659F
:100A20007A68064B9A4202D17B680022DA650C375D
:100A3000BD465DF8047B704700C0004000C4004024
:100A400080B400AFBD465DF8047B704780B400AF52
:100A5000084B01225A65074BAA22DA64054B4FF472
:100A600000521A63034B4FF02A62DA62BD465DF80A
:100A7000047B704700600040B0B58AB000AFFFF75C
:100A8000DFFF334B07F10C041D460FCD0FC42B685D
:100A90002370002387F8263000F05EF8FFF7D6FFBA
:100AA00000F066F900F0FCF800233B6201200B2106
:100AB00004223B6AFFF7E8FD002387F8273014E0A3
:100AC00000BF244B1B6903F04003002BF9D0214BDE
:100AD00097F8272007F128010A4412F81C2C5A63C2
:100AE00097F82730013387F8273097F82730102BF5
:100AF000E6D93B1D184600F067F8164B1B6903F05A
:100B00008003002B03D0134BDB6987F8263097F85E
:100B10002630002B1AD00F4B1B6903F04003002B2B
:100B200014D00C4B97F826205A63002387F8263000
:100B30003B6A002B14BF00230123DBB23B62012080
:100B40000B2104223B6AFFF79FFDD2E7D1E700BFEC
:100B50005C10000000C4004080B483B000AF184BAC
:100B60004FF480729A60164B48225A64144B144A10
:100B7000526C5A64124B06221A64114B40221A62BC
:100B80000F4B0D229A620E4B02229A650C4B0022EB
:100B90001A660B4B0A4A126E42F001021A66094BA2
:100BA0001B6B03F47F431B0A7B60054B7A6842F49E
:100BB000A062DA600C37BD465DF8047B704700BF69
:100BC00000800C40B081E00F90B583B000AF78603A
:100BD00000F05AF8FF2000F0B5F800F09FF8034647
:100BE0001A467B681A70FF2000F0ACF87B685C1C2A
:100BF00000F094F803462370FF2000F0A3F87B6810
:100C00009C1C00F08BF803462370FF2000F09AF83C
:100C10007B68DC1C00F082F80346237000F028F8A3
:100C2000FF2000F08FF87B681C1D00F077F803466A
:100C30002370FF2000F086F87B685C1D00F06EF8E2
:100C400003462370FF2000F07DF87B689C1D00F0B8
:100C500065F803462370FF2000F074F87B68DC1D04
:100C600000F05CF8034623700C37BD4690BD00BF12
:100C700080B400AF034B4FF48042DA65BD465DF8A7
:100C8000047B70470060004080B400AF034B4FF41A
:100C900080429A65BD465DF8047B70470060004065
:100CA000B0B588B000AF194B3C461D460FCD0FC400
:100CB00095E80F0084E80F0015480121FFF762FB5B
:100CC00004200D2104220023FFF7DEFC04200C2168
:100CD00001220023FFF7D8FC02200E21042200236A
:100CE000FFF7D2FC02200F2104220023FFF7CCFCE7
:100CF000084BBB603B4608481946FFF721FE064BF0
:100D00004FF487725A652037BD46B0BD70100000A1
:100D10000022020000C4090000C0004080B400AFFF
:100D200000BF074B1B6903F08003002BF9D0044B75
:100D3000DB69DBB21846BD465DF8047B704700BF37
:100D400000C0004080B483B000AF0346FB7100BF19
:100D5000064B1B6903F04003002BF9D0034BFA79D3
:100D60005A630C37BD465DF8047B704700C00040F5
:100D700080B400AF0E4B40F632625A610C4B032236
:100D80005A650B4B4FF44062DA60094B0522DA607A
:100D9000084B47F2C072DA60064B40F203125A6504
:100DA000044B05225A60BD465DF8047B704700BFC6
:100DB00000C4004000400840074880470749084AEF
:100DC000084B9B1A40F30580043BC858D0503FF7AE
:100DD000FBAF054800470000710F0000A4100000A1
:100DE000000000207000002055010000FEE7FEE733
:100DF000FEE7FEE7FEE7FEE7FEE7FEE7FEE7FEE7CB
:100E0000FEE7FEE7FEE7FEE7FEE7FEE7FEE7FEE7BA
:100E1000FEE7FEE7FEE7FEE7FEE7FEE7FEE7FEE7AA
:100E2000FEE7FEE7FEE7FEE7FEE7FEE7FEE700BFC0
:100E300080B400AF044BDB6C1B0EDBB21846BD4622
:100E40005DF8047B704700BFB081E00F80B582B0D1
:100E500000AF00F015F87860074B5B6803F00F03F4
:100E60007A6822FA03F37B60044B7A681A607B6825
:100E700018460837BD4680BD00800C408C0000201D
:100E800080B582B000AF2F4BDB6A03F47053B3F52B
:100E9000805F0AD0B3F5005F03D0B3F5006F08D0D0
:100EA0000BE0294B1B687B6047E04FF400437B60FD
:100EB00043E0264B1B687B603FE0224BDB6803F47A
:100EC000E063B3F5007F1BD0B3F5007F05D8002B9E
:100ED00024D0B3F5807F16D02BE0B3F5806F09D016
:100EE000B3F5A06F03D0B3F5407F06D021E0184BD7
:100EF0007B6021E0174B7B601EE0174B7B601BE0A3
:100F0000164B7B6018E0FFF793FF0346122B02D9C4
:100F1000134B7B6010E0134B7B600DE0FFF788FF05
:100F20000346122B02D9104B7B6005E00F4B7B6010
:100F300002E000237B6000BF00BF7B6818460837D3
:100F4000BD4680BD00800C40040000200000002051
:100F5000003FAB01406F4001809FD500C0D8A70083
:100F600040B56400C0CF6A00804F120040420F00BD
:100F700080B400AFBD465DF8047B704780B400AF1D
:100F80004FF400431846BD465DF8047B704700BF30
:100F900080B400AF4FF47A731846BD465DF8047B09
:100FA000704700BF80B400AF034B1B681846BD46B6
:100FB0005DF8047B704700BF0400002008B5074BB4
:100FC000044613B10021AFF30080054B1868836A13
:100FD00003B19847204600F033F800BF000000003E
:100FE0009410000070B50E4B0E4D0024ED1AAD109C
:100FF0001E46AC4204D056F8242090470134F8E74E
:1010000000F020F8084D094B0024ED1AAD101E46E3
:10101000AC4204D056F8242090470134F8E770BD64
:1010200068000020680000206C000020680000209C
:1010300002440346934202D003F8011BFAE77047CB
:10104000FEE700BFF8B500BFF8BC08BC9E4670477D
:10105000F8B500BFF8BC08BC9E4670470A0D48654D
:101060006C6C6F20576F726C64210A0D00000000D9
:10107000040000000000000040420F000D010100CC
:10108000000001000000000000000100000000005E
:0C109000430000000800002000000000E9
:08109C00B8F0FF7F0100000025
:1010A4000048E8010080000000000000000000008B
:1010B400000000000000000000000000000000002C
:1010C400000000000000000090100000000000007C
:1010D400000000000000000000000000000000000C
:1010E40000000000000000000000000000000000FC
:1010F40000000000000000000000000000000000EC
:1011040000000000000000002501000001010000B3
:0400000300000DB933
:00000001FF
