:10000000B0020020B5030000DFF800F08D050020ED
:10001000DFF800F011040020DFF800F055060020A2
:10002000DFF800F009060020DFF800F08704002068
:100030008C484FF0FF31016041608B480121017015
:1000400070478A482021016087494A68052A07D2FB
:10005000C06A4A6801EB820290604868401C4860B0
:10006000704770B54FF0FF3200200021012308E0F7
:1000700004EB8304A56864682D1B954298BF2A464B
:100080005B1C794C6568AB42F2D301230BE004EBB7
:100090008305AE686D68751B02EB5206B5423CBF26
:1000A0002818491C5B1C6568AB42F0D3C001B0FB4B
:1000B000F1F070BD6E48072101606B48407810B1C7
:1000C0006C486D49016070472DE9F84F4FF00050C2
:1000D00000F24401694A4A60694A0A646949416414
:1000E000694C20604FF400610020FFF78DFF6749E5
:1000F0000880674F4FF4807038605020F863062006
:10010000B8634020B8610D20386202203865DFF8FE
:10011000849199F81E00472808D0492806D048281D
:1001200014BF4FF400604FF4805001E04FF40070B2
:100130004D4EF061DFF860B10720CBF818004FF4A6
:100140000050CBF808000220CBF81C00DFF84CA1CF
:100150004FF40038CAF800800720CBF80000504D5B
:100160000CE00420D0F80008B0F5801F38BFFFF77E
:100170004FFFA06840F00400A06030BFA869C0072E
:10018000EFD54FF47020CBF8080001207070B865EF
:10019000D9F80000C0F3072040F4A0607860786AC6
:1001A0008007FCD5142028600520A864012068651C
:1001B0006866A8653B484FF0FF3181610121C1634A
:1001C000394941620621CAF80010202181600121CD
:1001D0000160A16821F00401A16000E030BF7168F6
:1001E000052902D231780029F8D01E4C0621216061
:1001F0000021416230780028FCD1FFF732FFC4F8BB
:1002000000800021A96629494008A0F58070886017
:1002100040F203300865C0200860052008600FF236
:100220009C00FFF7F9FED9F81400FFF7F9FED9F8A2
:100230001000FFF7F5FE0AA0FFF7EEFE1C4841F69E
:1002400071314163016841F00101016019480121E8
:10025000016019494160FFF7E7FE0020BDE8F28F19
:100260000D0A000080E100E0B0020020180001400B
:10027000180008400CED00E00400FA0543000000FF
:10028000B50000003100000008ED00E0BC000020D7
:1002900008800C40E081E00F0000084000E100E031
:1002A000B86000400400014002000500044008401E
:1002B00008000C4004200C40000100200D0A0D0A2B
:1002C000312E3630204368697049443A20000000DE
:1002D00010B450F8041B81B102681218001D50F8C8
:1002E000043BDC0744BFA9F10104E31852F8044BB6
:1002F00043F8044B091FF9D1EBE710BC704750F8E5
:10030000041B61B150F8042BD30744BFA9F10103CA
:100310009A18002342F8043B091FFAD1EFE770470F
:1003200010B5084979441C31074C7C441A34A14269
:1003300006D0081D0A68511888470146A142F8D125
:1003400010BD00BF0800000034000000B3FFFFFF35
:1003500030010000B00200200000000075FFFFFF28
:10036000280000005C000000C0000020180400000D
:1003700078000000E0030020000000000120C046DB
:10038000002801D0FFF7CCFF0020FFF79DFE00F012
:1003900000F880B500F002F800BF000007463846BC
:1003A00000F002F8FBE7000001491820ABBEFBE7B4
:1003B00026000200C046C046C046C046FFF7DEFF2A
:1003C0000D0A52656164790D0A0000000D0A4F4B59
:1003D0000D0A00000D0A4661696C0D0A000000005C
:1003E0000D0A3F0D0A000000FFFFFFFFFFFFFF00A7
:1003F00000A50000000000A9000000000A000000A5
:100400000D0A4352433A20000D0A000080F3088889
:1004100080F309888F467047DFF880034FF0FF3183
:1004200001604160DFF87803002101608160C161F3
:10043000DFF870030160DFF87003016505210162D8
:1004400080218161002181634FF48071016000216E
:10045000C163DFF858034FF4006101600420D0F855
:1004600000184FF400600068D0E770B504460D46F0
:10047000CF4E304600F0F2F82946204600F08AF8C8
:1004800000F0C6F806F10800BDE87040E6E02DE98E
:10049000F047C848006800048409C74DC74EDFF81C
:1004A00020A3DFF82083DFF8209306E000F070F847
:1004B00021464FF4006000F0DCF800F0BBF807467E
:1004C000002FFAD000F0C4F8002FF6D0622F29D008
:1004D000632F4BD0642F10D06C2F26D06D2F4DD0B2
:1004E0006E2F47D0702F13D0722F4AD0742F09D09F
:1004F000752FDBD0762F34D047E000F049F8214645
:100500000020D8E700F044F851464FF07E60D2E773
:1005100000F058F800F03CF8AC48802101604946F2
:100520004046C8E7FFF778FFC7E700F04BF8A84858
:100530000068C007FBD4A74870600120306000202D
:10054000F060082030603069C007FCD4A148006822
:1005500000280CBF05F20C0005F2140000F07EF834
:10056000ABE721460020FFF780FFA6E721464FF4C6
:100570000060F8E751464FF07E60F4E74946404698
:10058000F1E795489549016097E705F12000E5E717
:10059000284663E0002211E01346120242EA1322C9
:1005A00010F8013B5A4092B2131103F00F035A4066
:1005B00082EA023292B2D3B282EA43128842EBD389
:1005C0001046704730B577480168002202608266A5
:1005D000834B0024D55C2541ED07856E4CBF45F06B
:1005E000020525F002058566856E45F001058566E4
:1005F00001250560856E6D086D0085660025056026
:10060000641C082CE6DB521C152AE2D3016030BDC5
:1006100038B504460725A80024FA00F000F00F00C2
:100620000A2834BF30303730C0B200F011F86D1EE8
:10063000F1D531BD6B486C490A68920603D4401E5F
:10064000FAD1002070470028FBD04869C0B270473B
:1006500065490A68D206FCD50862704710B50446A1
:1006600003E014F8010BFFF7F3FF20780028F8D11E
:1006700010BD2DE9F04781460127504DDFF86CA1F0
:1006800014E053F8044B2240DAF81CC0844463455C
:10069000F7D312F1010F06D068602F6002222A60A2
:1006A0002A69D207FCD4DAF81C20101888423CBF13
:1006B0004FF0FF320346E7D34320FFF7C9FF4C4812
:1006C00049490968890605D4401EF9D1F4E7152087
:1006D000FFF7BEFF07F00100882101FB00A000F139
:1006E0002004FFF7A7FF6070DFF8E480042809D139
:1006F0000620FFF7ADFFD8F80000C007FBD40020AC
:10070000BDE8F087012818BF4FF0FF30F8D102266E
:10071000FFF790FF3055761C862EF9D3611C4A787E
:100720008B789A1892B2FF2AD1D14978FA1107EB47
:1007300012621212A7EB02208142C8D104F2840691
:100740003146201DFFF726FF94F88410727842EAA4
:1007500001218842BBD1201D791ED8F80030DB076B
:10076000FBD409EBC111696001212960214905F21F
:100770000C024A6000F27C020A601F4A8A601F492C
:100780004FF440120A600068E8600120C8F80000D9
:10079000102028607F1C06209AE7000080E100E01E
:1007A00000000840B860004008800C4008ED00E000
:1007B000F8030020F881E00FC00000200C000C407E
:1007C0000002E00F0040E00F0042E00F044008404C
:1007D00028200C40FC41E00F0CED00E00400FA057D
:1007E000E003002040420F0008400840B002002013
:1007F0008096980000010020E10100EA00310C40E1
:04000005000003B53F
:00000001FF
