:10000000E8030020DD03000008B4024B9C4608BC56
:100010006047C0464105002008B4024B9C4608BC1E
:100020006047C046F503002008B4024B9C4608BC5C
:100030006047C046E105002008B4024B9C4608BC5E
:100040006047C0467305002008B4024B9C4608BCBC
:100050006047C0465704002076480021C94301602C
:10006000416075480121017070477448202101608A
:1000700071494A68052A07D2C06A4A6892008A18FC
:1000800090604868401C48607047F0B56C49052096
:1000900008600120C860C86108616A4C0023DB4326
:1000A000A361E063684961620621684A1160202209
:1000B000A2602060664A15680426B54315605E4A52
:1000C00000E030BF5568052D02D21578002DF8D01C
:1000D000584D2960002161621478002CFCD1012563
:1000E00008E0AE009619B7687668BE1B9E4200D83D
:1000F00033006D1C5668B542F3D30BE085005519EB
:10010000AE686D68761B5D085D19AE4201D2A41918
:10011000491C401C5568A842F0D3E00100F0CEF81D
:10012000F0BD4C48072101604B480078002802D000
:100130004A484B4901607047F8B58020800549491D
:100140008164494901674949416449490860810C12
:100150000020FFF759FF47490880474C47492000D6
:10016000FFF752FF4648810D01608121C1630621DE
:100170008163402181610D21016201250565010D29
:10018000354A51603F4A07239361CE0096600226AC
:10019000D6612E4E8F003760136006E0344B9B68AB
:1001A00004261E43324B9E6030BF374EB3692B404E
:1001B00006D14B005B688E02B342EFD2FFF72CFFF3
:1001C000F0231B039360244A15708565A41CE26A22
:1001D000A41ED2B21143416014203060FFF755FFD6
:1001E00014490F600021B16628494008FF22D2431C
:1001F0008018886026480865052008602AA0FFF757
:1002000013FF42202058FFF717FFA41CE06BFFF7F5
:1002100013FF20A0FFF708FF1F4820494163016832
:10022000294301601E4805601E494160FFF70CFF2D
:100230000020F2BD80E100E028020020180001400B
:1002400000610040040001400200050000E100E000
:1002500010ED00E018000840100100200CED00E057
:100260000400FA056B0000002301000059000000A3
:1002700008ED00E0BC000020B281E00F0082E00F3A
:1002800008800C4000000840B8600040044008406E
:10029000030300000D0A000008000C40711B000061
:1002A00004200C40000100200D0A0D0A312E3634C6
:1002B000204368697049443A20000000094210D088
:1002C00088420BD30122002300185B418B4200D3EC
:1002D0005B1A5241F8D3190010007047010000204A
:1002E000704708B5C046C04608BD38B40121026851
:1002F000001D002A0FD00368C318446808300C4260
:1003000002D04D466D1E64191D6825601B1D241DFD
:10031000121FECD0F8E732BC704738B4012100223C
:100320000368001D002B0BD00468001D0C4202D096
:100330004D466D1E64192260241D1B1FF0D0FAE784
:1003400032BC704710B5074979441831064C7C44DB
:10035000163404E0081D0A68891888470100A14284
:10036000F8D110BD080000003C000000AFFFFFFF07
:1003700018010000100100201C00000028020020CD
:100380000000000067FFFFFF340000005C00000079
:10039000C00000206803000084000000E803002083
:1003A000000000000120C046002801D0FFF7CAFF6E
:1003B0000020FFF7C1FE00F000F880B500F002F861
:1003C00001BD00000746384600F002F8FBE70000D8
:1003D00001491820ABBEFBE726000200C046C0461C
:1003E000C046C046FFF7DEFF0D0A52656164790D15
:1003F0000A0000000D0A4F4B0D0A00000D0A46616D
:10040000696C0D0A000000000D0A3F0D0A00000093
:100410000D0A4352433A20000D0A000080F3088879
:1004200080F309888F46704771480021C9430160F5
:1004300041607048002101608160C1616E480160C7
:100440006E48016505220262802282618163820D0D
:100450000260C1636A48D1000160084641680068D3
:10046000FFF7DCFF00BF70B504000E00654D2800EB
:1004700000F0D0F83100200000F07CF800F093F894
:100480000835280000F0C6F870BD82B05E480068EC
:100490000004800900905D4C5D4D012706E02000BE
:1004A00000F0B8F80099F80200F0BEF800F08BF800
:1004B0000600FBD000F095F8002EF7D0622E27D072
:1004C000632E46D0642E10D06C2E23D06D2E47D0D4
:1004D0006E2E41D0702E15D0722E44D0742E0AD0BC
:1004E000752EDCD0762E2FD041E0200000F092F85F
:1004F00000990020D8E7200000F08CF89249FE20F7
:100500000005D1E7200000F085F890499048CBE73E
:10051000FFF78AFF8F4800683840FBD18E4868603B
:100520002F600020E8600820286028693840FCD14E
:1005300089480068002802D02000143001E0200023
:100540000C3000F067F8B1E700990020FFF78BFF4F
:10055000ACE70099F802F9E77B49FE200005F5E7D2
:100560007A497B48F2E77D487D4901609EE720009B
:100570002030E6E70200002012E0030A00021843E0
:100580001378584080B203000006000F5840030063
:100590000003584080B203000006C00C5840521CB3
:1005A0008A42EAD3704738B504000825210F0800B5
:1005B00030300A2900DBC01DC0B200F012F824015F
:1005C0006D1EF3D131BD674867490A68920603D4AE
:1005D000401EFAD1002070470028FBD04869C0B205
:1005E000704761490A68D206FCD50862704700006E
:1005F00080E100E000000840B860004008800C4046
:1006000008ED00E0E8000020F881E00FC0000020C5
:100610000C000C4010B5040002E0FFF7E2FF641C80
:1006200020780028F9D110BDF1B5012718E0140099
:100630001A6822401B1D4D4C64680419A342F6D36E
:100640000023DB439A4208D0494A506017600223D6
:100650001360474A1269D207FBD4444A5268801893
:10066000884203D20022D2430300E4E74320FFF78D
:10067000B8FF40483C490968890605D4401EF5D0BA
:10068000F8E71520FFF7ADFFF807C00F88214843B2
:1006900036490C180834FFF796FF60702D4D04287A
:1006A00007D10620FFF79DFF2868C007FCD4002073
:1006B000F2BD012802D00020C043F2BD0226FFF7A0
:1006C00082FFA055761C862EF9D3A178E2788A188D
:1006D000FF2AD6D1FA11120ED21912121202B81A2A
:1006E0008142CED1260084363100201DFFF742FF23
:1006F000317809028522A25C11438842C1D1241DB0
:10070000781EC00100992A68D207FCD4081818493D
:100710004860084601210160174815490C314160C5
:1007200021007C310160154981601548C021890391
:1007300001600F482168C160012028600C48102129
:1007400001607F1C06209DE70002E00F0042E00FE1
:100750000040E00F28200C40FC41E00F0CED00E0D1
:100760000400FA0540420F00084008401001002034
:100770000C000C408096980000010020E10100EA86
:0407800000310C40F8
:04000005000003DD17
:00000001FF
