:1000000000100020B9040000EF040000F10400001B
:10001000F3040000F5040000F7040000ED04000004
:10002000ED040000ED040000ED040000F904000000
:10003000FB040000ED040000FD040000FF040000CC
:10004000010500000305000005050000070500008C
:10005000090500000B0500000D0500000F0500005C
:10006000110500001305000015050000170500002C
:10007000190500001B0500001D0500001F050000FC
:1000800021050000230500002505000027050000CC
:10009000290500002B0500002D05000000000000D0
:1000A0000000000000000000000000000000000050
:1000B0000000000000000000000000000000000040
:1000C0000000000000000000000000000000000030
:1000D0000000000000000000000000000000000020
:1000E0000000000000000000000000000000000010
:1000F0000000000000000000000000000000000000
:1001000010B5054C237833B9044B13B10448AFF351
:1001100000800123237010BD680000200000000053
:10012000F805000008B5064B1BB106480649AFF3B9
:1001300000800648036813B1054B03B1984708BD1A
:1001400000000000F80500006C000020680000209E
:1001500000000000154B002B08BF134B9D46A3F574
:10016000803A00218B460F461348144A121A00F0B9
:100170001FFA0F4B002B00D098470E4B002B00D0DE
:1001800098470020002104000D000D48002802D0EF
:100190000C48AFF3008000F0E5F92000290000F0E2
:1001A000D1F800F0CBF900BF0000080000100020DB
:1001B0000000000000000000680000208400002013
:1001C000000000000000000090B484B000AFB960EF
:1001D0007B600346FB731346BB73FB7B052B03D885
:1001E000BB680F2B00D800BFBB7B002B1FD07B68E8
:1001F000002B0ED04448FA7BBB68012101FA03F3BF
:1002000019461346DB0013449B0003441033196066
:100210000DE03D48FA7BBB68012101FA03F3194662
:100220001346DB0013449B00034410335960BB6842
:10023000072B1DD83448FA7B334CF97B0B46DB0087
:100240000B449B0023445968BB689B000F2404FAAD
:1002500003F3DB431940BC7BBB689B0004FA03F348
:1002600019431346DB0013449B000344596024E008
:100270002548FA7B244CF97B0B46DB000B449B00A2
:10028000234408331968BB6803F18043083B9B0093
:100290000F2404FA03F3DB431940BC7BBB6803F172
:1002A0008043083B9B0004FA03F319431346DB0029
:1002B00013449B00034408331960BB7B002B1FD100
:1002C0007B68002B0ED01048FA7BBB68012101FA35
:1002D00003F319461346DB0013449B000344103319
:1002E00019600DE00848FA7BBB68012101FA03F3AD
:1002F00019461346DB0013449B0003441033596036
:100300001037BD4690BC70470060004080B400AF1D
:10031000BD465DF8047B704780B400AF084B0122F6
:100320005A65074BAA22DA64054B4FF400521A6350
:10033000034B4FF02A62DA62BD465DF8047B7047DA
:1003400000600040B0B588B000AFFFF7DFFF2A4B78
:100350003C1D1D460FCD0FC42B6823700023BB77B7
:1003600000F04EF8FFF7D8FF00F082F80023BB61E1
:1003700001200B210422BB69FFF726FF0023FB7736
:1003800011E000BF1D4B1B6903F04003002BF9D0A7
:100390001A4BFA7F07F120010A4412F81C2C5A6309
:1003A000FB7F0133FB77FB7F102BEAD9134B1B69D3
:1003B00003F08003002B02D0104BDB69BB77BB7FBF
:1003C000002B18D00D4B1B6903F04003002B12D0FB
:1003D0000A4BBA7F5A630023BB77BB69002B14BF5B
:1003E00000230123DBB2BB6101200B210422BB6986
:1003F000FFF7EAFEDAE7D9E7DC05000000C40040B9
:1004000080B483B000AF184B4FF480729A60164BE3
:1004100048225A64144B144A526C5A64124B0622F6
:100420001A64114B40221A620F4B0D229A620E4B36
:1004300002229A650C4B00221A660B4B0A4A126E76
:1004400042F001021A66094B1B6B03F47F431B0A3F
:100450007B60054B7A6842F4A062DA600C37BD46D7
:100460005DF8047B704700BF00800C40B081E00F56
:1004700080B400AF0E4B40F632625A610C4B03223F
:100480005A650B4B4FF44062DA60094B0522DA6083
:10049000084B47F2C072DA60064B40F203125A650D
:1004A000044B05225A60BD465DF8047B704700BFCF
:1004B00000C4004000400840074880470749084AF8
:1004C000084B9B1A40F30580043BC858D0503FF7B7
:1004D000FBAF05480047000031050000040600009E
:1004E000000000206800002055010000FEE7FEE744
:1004F000FEE7FEE7FEE7FEE7FEE7FEE7FEE7FEE7D4
:10050000FEE7FEE7FEE7FEE7FEE7FEE7FEE7FEE7C3
:10051000FEE7FEE7FEE7FEE7FEE7FEE7FEE7FEE7B3
:10052000FEE7FEE7FEE7FEE7FEE7FEE7FEE700BFC9
:1005300080B400AFBD465DF8047B704708B5074B3B
:10054000044613B10021AFF30080054B1868836A9D
:1005500003B19847204600F033F800BF00000000C8
:10056000F405000070B50E4B0E4D0024ED1AAD10D1
:100570001E46AC4204D056F8242090470134F8E7D8
:1005800000F020F8084D094B0024ED1AAD101E466E
:10059000AC4204D056F8242090470134F8E770BDEF
:1005A0006000002060000020640000206000002047
:1005B00002440346934202D003F8011BFAE7704756
:1005C000FEE700BFF8B500BFF8BC08BC9E46704708
:1005D000F8B500BFF8BC08BC9E4670470A0D4865D8
:1005E0006C6C6F20576F726C64210A0D0000000064
:0C05F0004300000000000020000000009C
:0805FC0058FBFF7F0100000025
:1006040000000000000000000000000000000000E6
:1006140000000000000000000000000000000000D6
:10062400F0050000000000000000000000000000D1
:1006340000000000000000000000000000000000B6
:1006440000000000000000000000000000000000A6
:100654000000000000000000000000000000000096
:08066400250100000101000066
:04000003000004B93C
:00000001FF
