:1000000000100020050900003B0900003D09000028
:100010003F090000410900004309000039090000C0
:1000200039090000390900003909000045090000BC
:100030004709000039090000490900006D0200006D
:100040004D0900004F09000051090000530900004C
:100050005509000057090000590900005B0900001C
:100060005D0900005F0900006109000063090000EC
:100070006509000067090000690900006B090000BC
:100080006D0900006F09000071090000730900008C
:1000900075090000770900007909000000000000E0
:1000A0000000000000000000000000000000000050
:1000B0000000000000000000000000000000000040
:1000C0000000000000000000000000000000000030
:1000D0000000000000000000000000000000000020
:1000E0000000000000000000000000000000000010
:1000F0000000000000000000000000000000000000
:1001000010B5054C237833B9044B13B10448AFF351
:1001100000800123237010BD70000020000000004B
:10012000580D000008B5064B1BB106480649AFF351
:1001300000800648036813B1054B03B1984708BD1A
:1001400000000000580D0000740000207000002026
:1001500000000000154B002B08BF134B9D46A3F574
:10016000803A00218B460F461348144A121A00F0B9
:1001700083FD0F4B002B00D098470E4B002B00D077
:1001800098470020002104000D000D48002802D0EF
:100190000C48AFF3008000F049FD2000290000F07A
:1001A00089F800F02FFD00BF0000080000100020BB
:1001B00000000000000000007000002094000020FB
:1001C000000000000000000080B483B000AF0346D0
:1001D0003960FB7197F90730002B0BDA0D49FB7979
:1001E00003F00F03043B3A68D2B25201D2B20B447F
:1001F0001A7609E0084997F907303A68D2B25201F5
:10020000D2B20B4483F800230C37BD465DF8047B63
:10021000704700BF00ED00E000E100E080B582B073
:1002200000AF78607B68013BB3F1807F01D301238D
:100230000FE00A4B7A68013A5A604FF0FF3007210D
:10024000FFF7C2FF054B00229A60044B07221A6099
:10025000002318460837BD4680BD00BF10E000E00F
:1002600080B400AFBD465DF8047B704780B400AF3A
:10027000044B1B685A1C034B1A60BD465DF8047B97
:10028000704700BF8C00002080B485B000AF78605C
:10029000074B1B68FB6000BF054B1A68FB68D21A4E
:1002A0007B689A42F8D31437BD465DF8047B7047EB
:1002B0008C00002080B582B000AFFFF7D1FF00F0C6
:1002C0008DFC144800F00CF90246134BA3FB0213FB
:1002D0009B091846FFF7A2FF0346002B00D0FEE75C
:1002E00000237B6001200B2104227B6800F064FA6C
:1002F0007B68002B14BF00230123DBB27B6001204D
:100300000B2104227B6800F057FA4FF47A70FFF754
:10031000BBFFEDE720000400D34D621080B483B032
:1003200000AF78603960FEE780B586B000AF7860D6
:100330007B68002B03D07B68B3F5004F04D90A48D3
:1003400040F20F11FFF7EAFF7B683B613B69B3FAAC
:1003500083F3FB60FB68DBB2C3F11F037B617B6946
:1003600018461837BD4680BDA40C000080B483B089
:1003700000AF1A4B5B6903F4E063B3F5007F14D060
:10038000B3F5007F05D8002B15D0B3F5807F0FD0D3
:100390001AE0B3F5C06F14D0B3F5E06F0ED0B3F52B
:1003A000407F11D10E4B7B6011E00E4B7B600EE065
:1003B0000D4B7B600BE00D4B7B6008E00C4B7B60D2
:1003C00005E00C4B7B6002E000237B6000BF7B6894
:1003D00018460C37BD465DF8047B704700800C4022
:1003E00040420F00C0CF6A00C0D8A700809FD50050
:1003F000406F4001003FAB0180B582B000AF0F48B5
:1004000000F042F90346FB70FB78072B05D0082B60
:1004100007D100F0DBFA78600BE0FFF7A7FF786008
:1004200007E007484FF4CB71FFF778FF00237B60AC
:1004300000BF7B6818460837BD4680BD0400180021
:10044000A40C000080B584B000AF78607B68002BFE
:1004500007D07B68012B04D01F4840F2AD11FFF795
:100460005DFF1E4B9A6A7B685B0022FA03F303F080
:100470000303032B28D801A252F823F0A90400009B
:100480008D040000950400009D04000000F01CFB9A
:10049000F8601CE000F02CFBF86018E000F07CFA3B
:1004A00003465B08FB6012E00C4B9A6A7B680433DE
:1004B0009B0022FA03F3002B03D000F00FFBF8603F
:1004C00005E00023FB6002E00023FB6000BFFB6847
:1004D00018461037BD4680BDA40C000000800C40BB
:1004E00090B585B000AF78607B6803F47813B3F5FE
:1004F000402F67D0B3F5402F15D8B3F5802F3CD0EF
:10050000B3F5802F05D8002B27D0B3F5003F28D0B6
:10051000A9E0B3F5002F39D0B3F5202F44D0B3F5BF
:10052000C02F2ED09FE0B3F5901F00F08280B3F56E
:10053000901F06D8B3F5602F57D0B3F5801F6BD04E
:1005400091E0B3F5C01F00F08680B3F5D01F00F036
:100550008680B3F5A01F71D085E000F037FAF8600F
:1005600089E000F033FAF860454B9B6803F00F0315
:10057000FA6822FA03F3FB607DE000F00DFAF86000
:1005800079E00020FFF75EFFF86074E00020FFF7DD
:1005900059FFF8603A4B9B6E03F0F0031B09FA68B1
:1005A00022FA03F3FB6066E00020FFF74BFFF860E0
:1005B000334B9B6E03F470631B0AFA6822FA03F351
:1005C000FB6058E00020FFF73DFFF8602C4B9B6E6E
:1005D00003F440531C0B1020FFF7A6FE03462344F0
:1005E000FA6822FA03F3FB6045E00020FFF72AFFD8
:1005F000F860234B9B6E03F440531B0BFA6822FAFE
:1006000003F3FB601E4BDB6F03F007030133FA6853
:10061000B2FBF3F3FB602EE00020FFF713FFF8605E
:10062000174B9B6E03F00303FA6822FA03F3FB6097
:1006300021E00120FFF706FFF8601CE00120FFF732
:1006400001FFF8600E4B1B6F03F00303FA6822FAF8
:1006500003F3FB600FE0FFF7CFFEF8600BE0FFF75E
:1006600085FEF86007E0074840F2F141FFF756FECB
:100670000023FB6000BFFB6818461437BD4690BDE1
:1006800000800C40A40C000080B586B000AF7860FC
:100690000123FB754FF470533B617B6803F00F033C
:1006A000FB60FB68013B032B74D801A252F823F0D6
:1006B000C1060000F7060000330700006F070000C6
:1006C0003B4BDA6A3B691340B3F5805F09D0B3F561
:1006D000005F03D0B3F5006F06D008E00223FB757E
:1006E00008E00323FB7505E00423FB7502E0052306
:1006F000FB7500BF56E02E4B9B6A03F00303022BF1
:1007000006D0032B07D0012B08D10323FB750FE084
:100710000223FB750CE00623FB7509E0244B9B6A62
:1007200003F48033002B02D00923FB7500E000BFE7
:1007300038E01F4B9B6A03F00C03082B06D00C2BF0
:1007400007D0042B08D10323FB750FE00223FB75B0
:100750000CE00623FB7509E0154B9B6A03F480133C
:10076000002B02D00923FB7500E000BF1AE007232D
:10077000FB750F4B1B6803F08053002B03D0B3F1C4
:10078000805F03D00EE00723FB7502E00823FB75B2
:1007900000BF07E0074840F2D151FFF7BFFD00233B
:1007A000FB7500BFFB7D18461837BD4680BD00BFF6
:1007B00000800C40A40C000090B585B000AFB9607B
:1007C0007B600346FB731346BB73FB7B052B02D890
:1007D000BB680F2B03D94948CC21FFF79FFDBB7B9A
:1007E000002B1FD07B68002B0ED04548FA7BBB68DE
:1007F000012101FA03F319461346DB0013449B0061
:100800000344103319600DE03D48FA7BBB680121B9
:1008100001FA03F319461346DB0013449B0003441B
:1008200010335960BB68072B1DD83548FA7B344C10
:10083000F97B0B46DB000B449B0023445968BB68E3
:100840009B000F2404FA03F3DB431940BC7BBB6815
:100850009B0004FA03F319431346DB0013449B0087
:100860000344596024E02648FA7B254CF97B0B466B
:10087000DB000B449B00234408331968BB6803F179
:100880008043083B9B000F2404FA03F3DB43194029
:10089000BC7BBB6803F18043083B9B0004FA03F375
:1008A00019431346DB0013449B00034408331960CB
:1008B000BB7B002B1FD17B68002B0ED01048FA7B2E
:1008C000BB68012101FA03F319461346DB00134408
:1008D0009B000344103319600DE00948FA7BBB68A4
:1008E000012101FA03F319461346DB0013449B0070
:1008F0000344103359601437BD4690BDF80C000016
:1009000000600040074880470749084A084B9B1A87
:1009100040F30580043BC858D0503FF7FBAF054873
:1009200000470000BD0A0000640D00000000002028
:100930007000002055010000FEE7FEE7FEE7FEE73D
:10094000FEE7FEE7FEE7FEE7FEE7FEE7FEE7FEE77F
:10095000FEE7FEE7FEE7FEE7FEE7FEE7FEE7FEE76F
:10096000FEE7FEE7FEE7FEE7FEE7FEE7FEE7FEE75F
:10097000FEE7FEE7FEE7FEE7FEE700BF80B400AF5C
:10098000044BDB6C1B0EDBB21846BD465DF8047BE6
:10099000704700BFB081E00F80B582B000AF00F0BB
:1009A00015F87860074B5B6803F00F037A6822FA4A
:1009B00003F37B60044B7A681A607B68184608373B
:1009C000BD4680BD00800C409000002080B582B004
:1009D00000AF2F4BDB6A03F47053B3F5805F0AD08E
:1009E000B3F5005F03D0B3F5006F08D00BE0294BDF
:1009F0001B687B6047E04FF400437B6043E0264B7D
:100A00001B687B603FE0224BDB6803F4E063B3F5D7
:100A1000007F1BD0B3F5007F05D8002B24D0B3F5A1
:100A2000807F16D02BE0B3F5806F09D0B3F5A06FAF
:100A300003D0B3F5407F06D021E0184B7B6021E066
:100A4000174B7B601EE0174B7B601BE0164B7B60F7
:100A500018E0FFF793FF0346122B02D9134B7B607C
:100A600010E0134B7B600DE0FFF788FF0346122B6D
:100A700002D9104B7B6005E00F4B7B6002E0002346
:100A80007B6000BF00BF7B6818460837BD4680BD4D
:100A900000800C400400002000000020003FAB015B
:100AA000406F4001809FD500C0D8A70040B56400CA
:100AB000C0CF6A00804F120040420F0080B400AFE8
:100AC000BD465DF8047B704780B400AF4FF400432F
:100AD0001846BD465DF8047B704700BF80B400AF88
:100AE0004FF47A731846BD465DF8047B704700BF2B
:100AF00080B400AF034B1B681846BD465DF8047B0D
:100B0000704700BF0400002080B400AF2B4B2B4A7D
:100B1000526C42F040025A64294B294AD2F82021F3
:100B200042F00402C3F82021254B254AD2F82021A7
:100B300022F4407242F48072C3F82021204B204AF4
:100B4000126D22F070421A651D4B1D4A126D42F063
:100B500080421A65194B10221A6200BF174BDB6ADC
:100B600003F02003002BF9D0164BDB6803F08073F1
:100B7000002B1ED1134B134AD26842F08072DA6008
:100B8000114B124A1A60124B0F221A61104B0222AB
:100B9000C3F8F0200E4B4FF48072C3F804234FF0DB
:100BA00060430C4AC3F8B02F4FF060430A4AC3F8C1
:100BB000802EBD465DF8047B704700BF00800C406E
:100BC00000600040F0ED00E0001000E0FF13014085
:100BD000000004E055CEACC50900010080B582B02C
:100BE00000AF4FF07E637B607B681B68002B01D1F8
:100BF000002302E0FFF788FF012318460837BD46AF
:100C000080BD00BF08B5074B044613B10021AFF308
:100C10000080054B1868836A03B19847204600F0AE
:100C200033F800BF00000000540D000070B50E4BFB
:100C30000E4D0024ED1AAD101E46AC4204D056F8FD
:100C4000242090470134F8E700F020F8084D094BC4
:100C50000024ED1AAD101E46AC4204D056F82420F4
:100C600090470134F8E770BD68000020680000205C
:100C70006C0000206800002002440346934202D02A
:100C800003F8011BFAE77047FEE700BFF8B500BFA5
:100C9000F8BC08BC9E467047F8B500BFF8BC08BC5D
:100CA0009E4670472F686F6D652F6D61726B2F4484
:100CB0006F776E6C6F6164732F53696D706C6963CD
:100CC00069747953747564696F5F76332F646576E0
:100CD000656C6F7065722F73646B732F65666D330F
:100CE000322F76322F656D6C69622F7372632F65B8
:100CF0006D5F636D752E63002F686F6D652F6D617D
:100D0000726B2F446F776E6C6F6164732F53696DD4
:100D1000706C696369747953747564696F5F763355
:100D20002F646576656C6F7065722F73646B732FBB
:100D300065666D33322F76322F656D6C69622F7365
:100D400072632F656D5F6770696F2E63000000002E
:0C0D50004300000008000020000000002C
:080D5C00F8F3FF7F0100000025
:100D64000048E801008000000000000000000000CE
:100D7400000000000000000000000000000000006F
:100D84000000000000000000500D00000000000002
:100D9400000000000000000000000000000000004F
:100DA400000000000000000000000000000000003F
:100DB400000000000000000000000000000000002F
:100DC40000000000000000002501000001010000F7
:0400000300000905EB
:00000001FF
